{
    "contractName": "Kanban",
    "abi": [
        {
            "inputs": [],
            "stateMutability": "nonpayable",
            "type": "constructor"
        },
        {
            "inputs": [
                {
                    "internalType": "address",
                    "name": "_sender",
                    "type": "address"
                }
            ],
            "name": "getMyHistorySubscribePremium",
            "outputs": [
                {
                    "components": [
                        {
                            "internalType": "string",
                            "name": "action",
                            "type": "string"
                        },
                        {
                            "internalType": "uint256",
                            "name": "amount",
                            "type": "uint256"
                        },
                        {
                            "internalType": "address",
                            "name": "userAddressWallet",
                            "type": "address"
                        }
                    ],
                    "internalType": "struct Kanban.user[]",
                    "name": "",
                    "type": "tuple[]"
                }
            ],
            "stateMutability": "view",
            "type": "function"
        },
        {
            "inputs": [
                {
                    "internalType": "address",
                    "name": "sender",
                    "type": "address"
                },
                {
                    "internalType": "address",
                    "name": "receiver",
                    "type": "address"
                }
            ],
            "name": "subscribeRequestPremium",
            "outputs": [],
            "stateMutability": "payable",
            "type": "function"
        }
    ],
    "bytecode": "608060405234801561001057600080fd5b50600080546001600160a01b031916331790556105ec806100326000396000f3fe6080604052600436106100295760003560e01c80633b9ba18d1461002e578063d033efc114610064575b600080fd5b34801561003a57600080fd5b5061004e61004936600461033d565b610079565b60405161005b919061035f565b60405180910390f35b610077610072366004610425565b6101a3565b005b6001600160a01b0381166000908152600160209081526040808320805482518185028101850190935280835260609492939192909184015b8282101561019857838290600052602060002090600302016040518060600160405290816000820180546100e490610458565b80601f016020809104026020016040519081016040528092919081815260200182805461011090610458565b801561015d5780601f106101325761010080835404028352916020019161015d565b820191906000526020600020905b81548152906001019060200180831161014057829003601f168201915b50505091835250506001828101546020808401919091526002909301546001600160a01b0316604090920191909152918352920191016100b1565b505050509050919050565b67016345785d8a00006001600160a01b03808316908416036102175760405162461bcd60e51b8152602060048201526024808201527f436f6e7472616374206f776e65722063616e6e6f7420706179207468656d73656044820152636c76657360e01b606482015260840160405180910390fd5b6040516001600160a01b0383169082156108fc029083906000818181858888f1935050505015801561024d573d6000803e3d6000fd5b50610258838261025d565b505050565b61028a6040518060600160405280606081526020016000815260200160006001600160a01b031681525090565b604080518082018252600481526314d95b9960e21b6020808301919091529083528281018490526001600160a01b0385166000908152600180835292812080549384018155815220825183926003029091019081906102e990826104f6565b5060208201516001820155604090910151600290910180546001600160a01b0319166001600160a01b03909216919091179055505050565b80356001600160a01b038116811461033857600080fd5b919050565b60006020828403121561034f57600080fd5b61035882610321565b9392505050565b60006020808301818452808551808352604092508286019150828160051b8701018488016000805b8481101561041657603f198a8503018652825160608151818752805180838901528592505b808310156103ca578183018c015188840160800152918b01916103ac565b608092508583828a0101528b8401518c8901528a84015193506103f78b8901856001600160a01b03169052565b988b0198601f01601f1916969096010194505091870191600101610387565b50919998505050505050505050565b6000806040838503121561043857600080fd5b61044183610321565b915061044f60208401610321565b90509250929050565b600181811c9082168061046c57607f821691505b60208210810361048c57634e487b7160e01b600052602260045260246000fd5b50919050565b634e487b7160e01b600052604160045260246000fd5b601f82111561025857600081815260208120601f850160051c810160208610156104cf5750805b601f850160051c820191505b818110156104ee578281556001016104db565b505050505050565b815167ffffffffffffffff81111561051057610510610492565b6105248161051e8454610458565b846104a8565b602080601f83116001811461055957600084156105415750858301515b600019600386901b1c1916600185901b1785556104ee565b600085815260208120601f198616915b8281101561058857888601518255948401946001909101908401610569565b50858210156105a65787850151600019600388901b60f8161c191681555b5050505050600190811b0190555056fea26469706673582212207951ca9e4aa1bd21e275f68788984d2d3ebfbbc1a3f7b06f0af2096fd36ce9fa64736f6c63430008130033",
    "sourcePath": "d:/Tai_lieu_hoc_tap/kanban/smartcontract/contracts/kanban.sol",
    "compiler": {
        "name": "solc",
        "version": "0.8.19+commit.7dd6d404"
    },
    "functionHashes": {
        "getMyHistorySubscribePremium(address)": "3b9ba18d",
        "subscribeRequestPremium(address,address)": "d033efc1"
    },
    "gasEstimates": {
        "creation": {
            "codeDepositCost": "303200",
            "executionCost": "24578",
            "totalCost": "327778"
        },
        "external": {
            "getMyHistorySubscribePremium(address)": "infinite",
            "subscribeRequestPremium(address,address)": "infinite"
        },
        "internal": {
            "addHistorySubscribePremium(address,uint256)": "infinite"
        }
    }
}